{
  "contractName": "Auction",
  "abi": [
    {
      "inputs": [
        {
          "internalType": "address",
          "name": "initialOwner",
          "type": "address"
        }
      ],
      "stateMutability": "nonpayable",
      "type": "constructor"
    },
    {
      "inputs": [
        {
          "internalType": "address",
          "name": "sender",
          "type": "address"
        },
        {
          "internalType": "uint256",
          "name": "tokenId",
          "type": "uint256"
        },
        {
          "internalType": "address",
          "name": "owner",
          "type": "address"
        }
      ],
      "name": "ERC721IncorrectOwner",
      "type": "error"
    },
    {
      "inputs": [
        {
          "internalType": "address",
          "name": "operator",
          "type": "address"
        },
        {
          "internalType": "uint256",
          "name": "tokenId",
          "type": "uint256"
        }
      ],
      "name": "ERC721InsufficientApproval",
      "type": "error"
    },
    {
      "inputs": [
        {
          "internalType": "address",
          "name": "approver",
          "type": "address"
        }
      ],
      "name": "ERC721InvalidApprover",
      "type": "error"
    },
    {
      "inputs": [
        {
          "internalType": "address",
          "name": "operator",
          "type": "address"
        }
      ],
      "name": "ERC721InvalidOperator",
      "type": "error"
    },
    {
      "inputs": [
        {
          "internalType": "address",
          "name": "owner",
          "type": "address"
        }
      ],
      "name": "ERC721InvalidOwner",
      "type": "error"
    },
    {
      "inputs": [
        {
          "internalType": "address",
          "name": "receiver",
          "type": "address"
        }
      ],
      "name": "ERC721InvalidReceiver",
      "type": "error"
    },
    {
      "inputs": [
        {
          "internalType": "address",
          "name": "sender",
          "type": "address"
        }
      ],
      "name": "ERC721InvalidSender",
      "type": "error"
    },
    {
      "inputs": [
        {
          "internalType": "uint256",
          "name": "tokenId",
          "type": "uint256"
        }
      ],
      "name": "ERC721NonexistentToken",
      "type": "error"
    },
    {
      "inputs": [
        {
          "internalType": "address",
          "name": "owner",
          "type": "address"
        }
      ],
      "name": "OwnableInvalidOwner",
      "type": "error"
    },
    {
      "inputs": [
        {
          "internalType": "address",
          "name": "account",
          "type": "address"
        }
      ],
      "name": "OwnableUnauthorizedAccount",
      "type": "error"
    },
    {
      "anonymous": false,
      "inputs": [
        {
          "indexed": true,
          "internalType": "address",
          "name": "owner",
          "type": "address"
        },
        {
          "indexed": true,
          "internalType": "address",
          "name": "approved",
          "type": "address"
        },
        {
          "indexed": true,
          "internalType": "uint256",
          "name": "tokenId",
          "type": "uint256"
        }
      ],
      "name": "Approval",
      "type": "event"
    },
    {
      "anonymous": false,
      "inputs": [
        {
          "indexed": true,
          "internalType": "address",
          "name": "owner",
          "type": "address"
        },
        {
          "indexed": true,
          "internalType": "address",
          "name": "operator",
          "type": "address"
        },
        {
          "indexed": false,
          "internalType": "bool",
          "name": "approved",
          "type": "bool"
        }
      ],
      "name": "ApprovalForAll",
      "type": "event"
    },
    {
      "anonymous": false,
      "inputs": [
        {
          "indexed": true,
          "internalType": "address",
          "name": "previousOwner",
          "type": "address"
        },
        {
          "indexed": true,
          "internalType": "address",
          "name": "newOwner",
          "type": "address"
        }
      ],
      "name": "OwnershipTransferred",
      "type": "event"
    },
    {
      "anonymous": false,
      "inputs": [
        {
          "indexed": true,
          "internalType": "address",
          "name": "from",
          "type": "address"
        },
        {
          "indexed": true,
          "internalType": "address",
          "name": "to",
          "type": "address"
        },
        {
          "indexed": true,
          "internalType": "uint256",
          "name": "tokenId",
          "type": "uint256"
        }
      ],
      "name": "Transfer",
      "type": "event"
    },
    {
      "inputs": [
        {
          "internalType": "address",
          "name": "to",
          "type": "address"
        },
        {
          "internalType": "uint256",
          "name": "tokenId",
          "type": "uint256"
        }
      ],
      "name": "approve",
      "outputs": [],
      "stateMutability": "nonpayable",
      "type": "function"
    },
    {
      "inputs": [
        {
          "internalType": "address",
          "name": "owner",
          "type": "address"
        }
      ],
      "name": "balanceOf",
      "outputs": [
        {
          "internalType": "uint256",
          "name": "",
          "type": "uint256"
        }
      ],
      "stateMutability": "view",
      "type": "function"
    },
    {
      "inputs": [
        {
          "internalType": "uint256",
          "name": "tokenId",
          "type": "uint256"
        }
      ],
      "name": "getApproved",
      "outputs": [
        {
          "internalType": "address",
          "name": "",
          "type": "address"
        }
      ],
      "stateMutability": "view",
      "type": "function"
    },
    {
      "inputs": [
        {
          "internalType": "address",
          "name": "owner",
          "type": "address"
        },
        {
          "internalType": "address",
          "name": "operator",
          "type": "address"
        }
      ],
      "name": "isApprovedForAll",
      "outputs": [
        {
          "internalType": "bool",
          "name": "",
          "type": "bool"
        }
      ],
      "stateMutability": "view",
      "type": "function"
    },
    {
      "inputs": [],
      "name": "name",
      "outputs": [
        {
          "internalType": "string",
          "name": "",
          "type": "string"
        }
      ],
      "stateMutability": "view",
      "type": "function"
    },
    {
      "inputs": [],
      "name": "owner",
      "outputs": [
        {
          "internalType": "address",
          "name": "",
          "type": "address"
        }
      ],
      "stateMutability": "view",
      "type": "function"
    },
    {
      "inputs": [
        {
          "internalType": "uint256",
          "name": "tokenId",
          "type": "uint256"
        }
      ],
      "name": "ownerOf",
      "outputs": [
        {
          "internalType": "address",
          "name": "",
          "type": "address"
        }
      ],
      "stateMutability": "view",
      "type": "function"
    },
    {
      "inputs": [],
      "name": "renounceOwnership",
      "outputs": [],
      "stateMutability": "nonpayable",
      "type": "function"
    },
    {
      "inputs": [
        {
          "internalType": "address",
          "name": "from",
          "type": "address"
        },
        {
          "internalType": "address",
          "name": "to",
          "type": "address"
        },
        {
          "internalType": "uint256",
          "name": "tokenId",
          "type": "uint256"
        }
      ],
      "name": "safeTransferFrom",
      "outputs": [],
      "stateMutability": "nonpayable",
      "type": "function"
    },
    {
      "inputs": [
        {
          "internalType": "address",
          "name": "from",
          "type": "address"
        },
        {
          "internalType": "address",
          "name": "to",
          "type": "address"
        },
        {
          "internalType": "uint256",
          "name": "tokenId",
          "type": "uint256"
        },
        {
          "internalType": "bytes",
          "name": "data",
          "type": "bytes"
        }
      ],
      "name": "safeTransferFrom",
      "outputs": [],
      "stateMutability": "nonpayable",
      "type": "function"
    },
    {
      "inputs": [
        {
          "internalType": "address",
          "name": "operator",
          "type": "address"
        },
        {
          "internalType": "bool",
          "name": "approved",
          "type": "bool"
        }
      ],
      "name": "setApprovalForAll",
      "outputs": [],
      "stateMutability": "nonpayable",
      "type": "function"
    },
    {
      "inputs": [
        {
          "internalType": "bytes4",
          "name": "interfaceId",
          "type": "bytes4"
        }
      ],
      "name": "supportsInterface",
      "outputs": [
        {
          "internalType": "bool",
          "name": "",
          "type": "bool"
        }
      ],
      "stateMutability": "view",
      "type": "function"
    },
    {
      "inputs": [],
      "name": "symbol",
      "outputs": [
        {
          "internalType": "string",
          "name": "",
          "type": "string"
        }
      ],
      "stateMutability": "view",
      "type": "function"
    },
    {
      "inputs": [
        {
          "internalType": "uint256",
          "name": "tokenId",
          "type": "uint256"
        }
      ],
      "name": "tokenURI",
      "outputs": [
        {
          "internalType": "string",
          "name": "",
          "type": "string"
        }
      ],
      "stateMutability": "view",
      "type": "function"
    },
    {
      "inputs": [
        {
          "internalType": "address",
          "name": "from",
          "type": "address"
        },
        {
          "internalType": "address",
          "name": "to",
          "type": "address"
        },
        {
          "internalType": "uint256",
          "name": "tokenId",
          "type": "uint256"
        }
      ],
      "name": "transferFrom",
      "outputs": [],
      "stateMutability": "nonpayable",
      "type": "function"
    },
    {
      "inputs": [
        {
          "internalType": "address",
          "name": "newOwner",
          "type": "address"
        }
      ],
      "name": "transferOwnership",
      "outputs": [],
      "stateMutability": "nonpayable",
      "type": "function"
    },
    {
      "inputs": [],
      "name": "startAuction",
      "outputs": [],
      "stateMutability": "nonpayable",
      "type": "function"
    },
    {
      "inputs": [
        {
          "internalType": "uint256",
          "name": "tokenId",
          "type": "uint256"
        }
      ],
      "name": "placeBid",
      "outputs": [],
      "stateMutability": "payable",
      "type": "function"
    },
    {
      "inputs": [],
      "name": "endAuction",
      "outputs": [],
      "stateMutability": "nonpayable",
      "type": "function"
    },
    {
      "inputs": [],
      "name": "getHighestBid",
      "outputs": [
        {
          "internalType": "uint256",
          "name": "",
          "type": "uint256"
        }
      ],
      "stateMutability": "view",
      "type": "function"
    },
    {
      "inputs": [],
      "name": "getHighestBidder",
      "outputs": [
        {
          "internalType": "address",
          "name": "",
          "type": "address"
        }
      ],
      "stateMutability": "view",
      "type": "function"
    },
    {
      "inputs": [
        {
          "internalType": "uint256",
          "name": "tokenId",
          "type": "uint256"
        }
      ],
      "name": "claimToken",
      "outputs": [],
      "stateMutability": "nonpayable",
      "type": "function"
    },
    {
      "inputs": [],
      "name": "claimBidAmount",
      "outputs": [],
      "stateMutability": "nonpayable",
      "type": "function"
    }
  ],
  "bytecode": "0x608060405234801562000010575f80fd5b50604051620031363803806200313683398181016040528101906200003691906200027c565b806040518060400160405280600581526020017f4d794e46540000000000000000000000000000000000000000000000000000008152506040518060400160405280600381526020017f4e46540000000000000000000000000000000000000000000000000000000000815250815f9081620000b3919062000510565b508060019081620000c5919062000510565b5050505f73ffffffffffffffffffffffffffffffffffffffff168173ffffffffffffffffffffffffffffffffffffffff16036200013b575f6040517f1e4fbdf700000000000000000000000000000000000000000000000000000000815260040162000132919062000605565b60405180910390fd5b6200014c816200015460201b60201c565b505062000620565b5f60065f9054906101000a900473ffffffffffffffffffffffffffffffffffffffff1690508160065f6101000a81548173ffffffffffffffffffffffffffffffffffffffff021916908373ffffffffffffffffffffffffffffffffffffffff1602179055508173ffffffffffffffffffffffffffffffffffffffff168173ffffffffffffffffffffffffffffffffffffffff167f8be0079c531659141344cd1fd0a4f28419497f9722a3daafe3b4186f6b6457e060405160405180910390a35050565b5f80fd5b5f73ffffffffffffffffffffffffffffffffffffffff82169050919050565b5f62000246826200021b565b9050919050565b62000258816200023a565b811462000263575f80fd5b50565b5f8151905062000276816200024d565b92915050565b5f6020828403121562000294576200029362000217565b5b5f620002a38482850162000266565b91505092915050565b5f81519050919050565b7f4e487b71000000000000000000000000000000000000000000000000000000005f52604160045260245ffd5b7f4e487b71000000000000000000000000000000000000000000000000000000005f52602260045260245ffd5b5f60028204905060018216806200032857607f821691505b6020821081036200033e576200033d620002e3565b5b50919050565b5f819050815f5260205f209050919050565b5f6020601f8301049050919050565b5f82821b905092915050565b5f60088302620003a27fffffffffffffffffffffffffffffffffffffffffffffffffffffffffffffffff8262000365565b620003ae868362000365565b95508019841693508086168417925050509392505050565b5f819050919050565b5f819050919050565b5f620003f8620003f2620003ec84620003c6565b620003cf565b620003c6565b9050919050565b5f819050919050565b6200041383620003d8565b6200042b6200042282620003ff565b84845462000371565b825550505050565b5f90565b6200044162000433565b6200044e81848462000408565b505050565b5b818110156200047557620004695f8262000437565b60018101905062000454565b5050565b601f821115620004c4576200048e8162000344565b620004998462000356565b81016020851015620004a9578190505b620004c1620004b88562000356565b83018262000453565b50505b505050565b5f82821c905092915050565b5f620004e65f1984600802620004c9565b1980831691505092915050565b5f620005008383620004d5565b9150826002028217905092915050565b6200051b82620002ac565b67ffffffffffffffff811115620005375762000536620002b6565b5b62000543825462000310565b6200055082828562000479565b5f60209050601f83116001811462000586575f841562000571578287015190505b6200057d8582620004f3565b865550620005ec565b601f198416620005968662000344565b5f5b82811015620005bf5784890151825560018201915060208501945060208101905062000598565b86831015620005df5784890151620005db601f891682620004d5565b8355505b6001600288020188555050505b505050505050565b620005ff816200023a565b82525050565b5f6020820190506200061a5f830184620005f4565b92915050565b612b08806200062e5f395ff3fe60806040526004361061013e575f3560e01c8063715018a6116100b5578063a9e7c2e51161006e578063a9e7c2e514610402578063b88d4fde1461042a578063c87b56dd14610452578063e985e9c51461048e578063f2fde38b146104ca578063fe67a54b146104f25761013e565b8063715018a61461033e5780638da5cb5b1461035457806395d89b411461037e57806396468934146103a85780639979ef45146103be578063a22cb465146103da5761013e565b806323b872dd1161010757806323b872dd1461023657806342842e0e1461025e5780634979440a146102865780636352211e146102b05780636b64c769146102ec57806370a08231146103025761013e565b80623495a41461014257806301ffc9a71461016c57806306fdde03146101a8578063081812fc146101d2578063095ea7b31461020e575b5f80fd5b34801561014d575f80fd5b50610156610508565b6040516101639190612030565b60405180910390f35b348015610177575f80fd5b50610192600480360381019061018d91906120af565b610530565b60405161019f91906120f4565b60405180910390f35b3480156101b3575f80fd5b506101bc610611565b6040516101c99190612197565b60405180910390f35b3480156101dd575f80fd5b506101f860048036038101906101f391906121ea565b6106a0565b6040516102059190612030565b60405180910390f35b348015610219575f80fd5b50610234600480360381019061022f919061223f565b6106bb565b005b348015610241575f80fd5b5061025c6004803603810190610257919061227d565b6106d1565b005b348015610269575f80fd5b50610284600480360381019061027f919061227d565b6107d0565b005b348015610291575f80fd5b5061029a6107ef565b6040516102a791906122dc565b60405180910390f35b3480156102bb575f80fd5b506102d660048036038101906102d191906121ea565b6107f8565b6040516102e39190612030565b60405180910390f35b3480156102f7575f80fd5b50610300610809565b005b34801561030d575f80fd5b50610328600480360381019061032391906122f5565b610876565b60405161033591906122dc565b60405180910390f35b348015610349575f80fd5b5061035261092c565b005b34801561035f575f80fd5b5061036861093f565b6040516103759190612030565b60405180910390f35b348015610389575f80fd5b50610392610967565b60405161039f9190612197565b60405180910390f35b3480156103b3575f80fd5b506103bc6109f7565b005b6103d860048036038101906103d391906121ea565b610be0565b005b3480156103e5575f80fd5b5061040060048036038101906103fb919061234a565b610e3e565b005b34801561040d575f80fd5b50610428600480360381019061042391906121ea565b610e54565b005b348015610435575f80fd5b50610450600480360381019061044b91906124b4565b610f57565b005b34801561045d575f80fd5b50610478600480360381019061047391906121ea565b610f74565b6040516104859190612197565b60405180910390f35b348015610499575f80fd5b506104b460048036038101906104af9190612534565b610fda565b6040516104c191906120f4565b60405180910390f35b3480156104d5575f80fd5b506104f060048036038101906104eb91906122f5565b611068565b005b3480156104fd575f80fd5b506105066110ec565b005b5f600c5f9054906101000a900473ffffffffffffffffffffffffffffffffffffffff16905090565b5f7f80ac58cd000000000000000000000000000000000000000000000000000000007bffffffffffffffffffffffffffffffffffffffffffffffffffffffff1916827bffffffffffffffffffffffffffffffffffffffffffffffffffffffff191614806105fa57507f5b5e139f000000000000000000000000000000000000000000000000000000007bffffffffffffffffffffffffffffffffffffffffffffffffffffffff1916827bffffffffffffffffffffffffffffffffffffffffffffffffffffffff1916145b8061060a5750610609826110fe565b5b9050919050565b60605f805461061f9061259f565b80601f016020809104026020016040519081016040528092919081815260200182805461064b9061259f565b80156106965780601f1061066d57610100808354040283529160200191610696565b820191905f5260205f20905b81548152906001019060200180831161067957829003601f168201915b5050505050905090565b5f6106aa82611167565b506106b4826111ed565b9050919050565b6106cd82826106c8611226565b61122d565b5050565b5f73ffffffffffffffffffffffffffffffffffffffff168273ffffffffffffffffffffffffffffffffffffffff1603610741575f6040517f64a0ae920000000000000000000000000000000000000000000000000000000081526004016107389190612030565b60405180910390fd5b5f610754838361074f611226565b61123f565b90508373ffffffffffffffffffffffffffffffffffffffff168173ffffffffffffffffffffffffffffffffffffffff16146107ca578382826040517f64283d7b0000000000000000000000000000000000000000000000000000000081526004016107c1939291906125cf565b60405180910390fd5b50505050565b6107ea83838360405180602001604052805f815250610f57565b505050565b5f600b54905090565b5f61080282611167565b9050919050565b61081161144a565b600a5f9054906101000a900460ff1615610860576040517f08c379a00000000000000000000000000000000000000000000000000000000081526004016108579061264e565b60405180910390fd5b610e104261086e9190612699565b600981905550565b5f8073ffffffffffffffffffffffffffffffffffffffff168273ffffffffffffffffffffffffffffffffffffffff16036108e7575f6040517f89c62b640000000000000000000000000000000000000000000000000000000081526004016108de9190612030565b60405180910390fd5b60035f8373ffffffffffffffffffffffffffffffffffffffff1673ffffffffffffffffffffffffffffffffffffffff1681526020019081526020015f20549050919050565b61093461144a565b61093d5f6114d1565b565b5f60065f9054906101000a900473ffffffffffffffffffffffffffffffffffffffff16905090565b6060600180546109769061259f565b80601f01602080910402602001604051908101604052809291908181526020018280546109a29061259f565b80156109ed5780601f106109c4576101008083540402835291602001916109ed565b820191905f5260205f20905b8154815290600101906020018083116109d057829003601f168201915b5050505050905090565b600a5f9054906101000a900460ff16610a45576040517f08c379a0000000000000000000000000000000000000000000000000000000008152600401610a3c90612716565b60405180910390fd5b600c5f9054906101000a900473ffffffffffffffffffffffffffffffffffffffff1673ffffffffffffffffffffffffffffffffffffffff163373ffffffffffffffffffffffffffffffffffffffff1603610ad4576040517f08c379a0000000000000000000000000000000000000000000000000000000008152600401610acb906127a4565b60405180910390fd5b5f60085f3373ffffffffffffffffffffffffffffffffffffffff1673ffffffffffffffffffffffffffffffffffffffff1681526020019081526020015f205490505f8111610b57576040517f08c379a0000000000000000000000000000000000000000000000000000000008152600401610b4e9061280c565b60405180910390fd5b5f60085f3373ffffffffffffffffffffffffffffffffffffffff1673ffffffffffffffffffffffffffffffffffffffff1681526020019081526020015f20819055503373ffffffffffffffffffffffffffffffffffffffff166108fc8290811502906040515f60405180830381858888f19350505050158015610bdc573d5f803e3d5ffd5b5050565b600a5f9054906101000a900460ff1615610c2f576040517f08c379a0000000000000000000000000000000000000000000000000000000008152600401610c269061264e565b60405180910390fd5b5f3411610c71576040517f08c379a0000000000000000000000000000000000000000000000000000000008152600401610c689061289a565b60405180910390fd5b600954421115610c8457610c83611594565b5b600b54341115610d5a575f600b5414610d0e57600b5460085f600c5f9054906101000a900473ffffffffffffffffffffffffffffffffffffffff1673ffffffffffffffffffffffffffffffffffffffff1673ffffffffffffffffffffffffffffffffffffffff1681526020019081526020015f205f828254610d069190612699565b925050819055505b33600c5f6101000a81548173ffffffffffffffffffffffffffffffffffffffff021916908373ffffffffffffffffffffffffffffffffffffffff16021790555034600b81905550610dae565b3460085f3373ffffffffffffffffffffffffffffffffffffffff1673ffffffffffffffffffffffffffffffffffffffff1681526020019081526020015f205f828254610da69190612699565b925050819055505b60405180604001604052803373ffffffffffffffffffffffffffffffffffffffff1681526020013481525060075f8381526020019081526020015f205f820151815f015f6101000a81548173ffffffffffffffffffffffffffffffffffffffff021916908373ffffffffffffffffffffffffffffffffffffffff1602179055506020820151816001015590505050565b610e50610e49611226565b83836115ff565b5050565b600a5f9054906101000a900460ff16610ea2576040517f08c379a0000000000000000000000000000000000000000000000000000000008152600401610e9990612716565b60405180910390fd5b600c5f9054906101000a900473ffffffffffffffffffffffffffffffffffffffff1673ffffffffffffffffffffffffffffffffffffffff163373ffffffffffffffffffffffffffffffffffffffff1614610f31576040517f08c379a0000000000000000000000000000000000000000000000000000000008152600401610f2890612928565b60405180910390fd5b610f3b3382611768565b5f60075f8381526020019081526020015f206001018190555050565b610f628484846106d1565b610f6e84848484611785565b50505050565b6060610f7f82611167565b505f610f89611937565b90505f815111610fa75760405180602001604052805f815250610fd2565b80610fb18461194d565b604051602001610fc2929190612980565b6040516020818303038152906040525b915050919050565b5f60055f8473ffffffffffffffffffffffffffffffffffffffff1673ffffffffffffffffffffffffffffffffffffffff1681526020019081526020015f205f8373ffffffffffffffffffffffffffffffffffffffff1673ffffffffffffffffffffffffffffffffffffffff1681526020019081526020015f205f9054906101000a900460ff16905092915050565b61107061144a565b5f73ffffffffffffffffffffffffffffffffffffffff168173ffffffffffffffffffffffffffffffffffffffff16036110e0575f6040517f1e4fbdf70000000000000000000000000000000000000000000000000000000081526004016110d79190612030565b60405180910390fd5b6110e9816114d1565b50565b6110f461144a565b6110fc611594565b565b5f7f01ffc9a7000000000000000000000000000000000000000000000000000000007bffffffffffffffffffffffffffffffffffffffffffffffffffffffff1916827bffffffffffffffffffffffffffffffffffffffffffffffffffffffff1916149050919050565b5f8061117283611a17565b90505f73ffffffffffffffffffffffffffffffffffffffff168173ffffffffffffffffffffffffffffffffffffffff16036111e457826040517f7e2732890000000000000000000000000000000000000000000000000000000081526004016111db91906122dc565b60405180910390fd5b80915050919050565b5f60045f8381526020019081526020015f205f9054906101000a900473ffffffffffffffffffffffffffffffffffffffff169050919050565b5f33905090565b61123a8383836001611a50565b505050565b5f8061124a84611a17565b90505f73ffffffffffffffffffffffffffffffffffffffff168373ffffffffffffffffffffffffffffffffffffffff161461128b5761128a818486611c0f565b5b5f73ffffffffffffffffffffffffffffffffffffffff168173ffffffffffffffffffffffffffffffffffffffff1614611316576112ca5f855f80611a50565b600160035f8373ffffffffffffffffffffffffffffffffffffffff1673ffffffffffffffffffffffffffffffffffffffff1681526020019081526020015f205f82825403925050819055505b5f73ffffffffffffffffffffffffffffffffffffffff168573ffffffffffffffffffffffffffffffffffffffff161461139557600160035f8773ffffffffffffffffffffffffffffffffffffffff1673ffffffffffffffffffffffffffffffffffffffff1681526020019081526020015f205f82825401925050819055505b8460025f8681526020019081526020015f205f6101000a81548173ffffffffffffffffffffffffffffffffffffffff021916908373ffffffffffffffffffffffffffffffffffffffff160217905550838573ffffffffffffffffffffffffffffffffffffffff168273ffffffffffffffffffffffffffffffffffffffff167fddf252ad1be2c89b69c2b068fc378daa952ba7f163c4a11628f55a4df523b3ef60405160405180910390a4809150509392505050565b611452611226565b73ffffffffffffffffffffffffffffffffffffffff1661147061093f565b73ffffffffffffffffffffffffffffffffffffffff16146114cf57611493611226565b6040517f118cdaa70000000000000000000000000000000000000000000000000000000081526004016114c69190612030565b60405180910390fd5b565b5f60065f9054906101000a900473ffffffffffffffffffffffffffffffffffffffff1690508160065f6101000a81548173ffffffffffffffffffffffffffffffffffffffff021916908373ffffffffffffffffffffffffffffffffffffffff1602179055508173ffffffffffffffffffffffffffffffffffffffff168173ffffffffffffffffffffffffffffffffffffffff167f8be0079c531659141344cd1fd0a4f28419497f9722a3daafe3b4186f6b6457e060405160405180910390a35050565b600a5f9054906101000a900460ff16156115e3576040517f08c379a00000000000000000000000000000000000000000000000000000000081526004016115da9061264e565b60405180910390fd5b6001600a5f6101000a81548160ff021916908315150217905550565b5f73ffffffffffffffffffffffffffffffffffffffff168273ffffffffffffffffffffffffffffffffffffffff160361166f57816040517f5b08ba180000000000000000000000000000000000000000000000000000000081526004016116669190612030565b60405180910390fd5b8060055f8573ffffffffffffffffffffffffffffffffffffffff1673ffffffffffffffffffffffffffffffffffffffff1681526020019081526020015f205f8473ffffffffffffffffffffffffffffffffffffffff1673ffffffffffffffffffffffffffffffffffffffff1681526020019081526020015f205f6101000a81548160ff0219169083151502179055508173ffffffffffffffffffffffffffffffffffffffff168373ffffffffffffffffffffffffffffffffffffffff167f17307eab39ab6107e8899845ad3d59bd9653f200f220920489ca2b5937696c318360405161175b91906120f4565b60405180910390a3505050565b611781828260405180602001604052805f815250611cd2565b5050565b5f8373ffffffffffffffffffffffffffffffffffffffff163b1115611931578273ffffffffffffffffffffffffffffffffffffffff1663150b7a026117c8611226565b8685856040518563ffffffff1660e01b81526004016117ea94939291906129f5565b6020604051808303815f875af192505050801561182557506040513d601f19601f820116820180604052508101906118229190612a53565b60015b6118a6573d805f8114611853576040519150601f19603f3d011682016040523d82523d5f602084013e611858565b606091505b505f81510361189e57836040517f64a0ae920000000000000000000000000000000000000000000000000000000081526004016118959190612030565b60405180910390fd5b805181602001fd5b63150b7a0260e01b7bffffffffffffffffffffffffffffffffffffffffffffffffffffffff1916817bffffffffffffffffffffffffffffffffffffffffffffffffffffffff19161461192f57836040517f64a0ae920000000000000000000000000000000000000000000000000000000081526004016119269190612030565b60405180910390fd5b505b50505050565b606060405180602001604052805f815250905090565b60605f600161195b84611ced565b0190505f8167ffffffffffffffff81111561197957611978612390565b5b6040519080825280601f01601f1916602001820160405280156119ab5781602001600182028036833780820191505090505b5090505f82602001820190505b600115611a0c578080600190039150507f3031323334353637383961626364656600000000000000000000000000000000600a86061a8153600a8581611a0157611a00612a7e565b5b0494505f85036119b8575b819350505050919050565b5f60025f8381526020019081526020015f205f9054906101000a900473ffffffffffffffffffffffffffffffffffffffff169050919050565b8080611a8857505f73ffffffffffffffffffffffffffffffffffffffff168273ffffffffffffffffffffffffffffffffffffffff1614155b15611bba575f611a9784611167565b90505f73ffffffffffffffffffffffffffffffffffffffff168373ffffffffffffffffffffffffffffffffffffffff1614158015611b0157508273ffffffffffffffffffffffffffffffffffffffff168173ffffffffffffffffffffffffffffffffffffffff1614155b8015611b145750611b128184610fda565b155b15611b5657826040517fa9fbf51f000000000000000000000000000000000000000000000000000000008152600401611b4d9190612030565b60405180910390fd5b8115611bb857838573ffffffffffffffffffffffffffffffffffffffff168273ffffffffffffffffffffffffffffffffffffffff167f8c5be1e5ebec7d5bd14f71427d1e84f3dd0314c0f7b2291e5b200ac8c7c3b92560405160405180910390a45b505b8360045f8581526020019081526020015f205f6101000a81548173ffffffffffffffffffffffffffffffffffffffff021916908373ffffffffffffffffffffffffffffffffffffffff16021790555050505050565b611c1a838383611e3e565b611ccd575f73ffffffffffffffffffffffffffffffffffffffff168373ffffffffffffffffffffffffffffffffffffffff1603611c8e57806040517f7e273289000000000000000000000000000000000000000000000000000000008152600401611c8591906122dc565b60405180910390fd5b81816040517f177e802f000000000000000000000000000000000000000000000000000000008152600401611cc4929190612aab565b60405180910390fd5b505050565b611cdc8383611efe565b611ce85f848484611785565b505050565b5f805f90507a184f03e93ff9f4daa797ed6e38ed64bf6a1f0100000000000000008310611d49577a184f03e93ff9f4daa797ed6e38ed64bf6a1f0100000000000000008381611d3f57611d3e612a7e565b5b0492506040810190505b6d04ee2d6d415b85acef81000000008310611d86576d04ee2d6d415b85acef81000000008381611d7c57611d7b612a7e565b5b0492506020810190505b662386f26fc100008310611db557662386f26fc100008381611dab57611daa612a7e565b5b0492506010810190505b6305f5e1008310611dde576305f5e1008381611dd457611dd3612a7e565b5b0492506008810190505b6127108310611e03576127108381611df957611df8612a7e565b5b0492506004810190505b60648310611e265760648381611e1c57611e1b612a7e565b5b0492506002810190505b600a8310611e35576001810190505b80915050919050565b5f8073ffffffffffffffffffffffffffffffffffffffff168373ffffffffffffffffffffffffffffffffffffffff1614158015611ef557508273ffffffffffffffffffffffffffffffffffffffff168473ffffffffffffffffffffffffffffffffffffffff161480611eb65750611eb58484610fda565b5b80611ef457508273ffffffffffffffffffffffffffffffffffffffff16611edc836111ed565b73ffffffffffffffffffffffffffffffffffffffff16145b5b90509392505050565b5f73ffffffffffffffffffffffffffffffffffffffff168273ffffffffffffffffffffffffffffffffffffffff1603611f6e575f6040517f64a0ae92000000000000000000000000000000000000000000000000000000008152600401611f659190612030565b60405180910390fd5b5f611f7a83835f61123f565b90505f73ffffffffffffffffffffffffffffffffffffffff168173ffffffffffffffffffffffffffffffffffffffff1614611fec575f6040517f73c6ac6e000000000000000000000000000000000000000000000000000000008152600401611fe39190612030565b60405180910390fd5b505050565b5f73ffffffffffffffffffffffffffffffffffffffff82169050919050565b5f61201a82611ff1565b9050919050565b61202a81612010565b82525050565b5f6020820190506120435f830184612021565b92915050565b5f604051905090565b5f80fd5b5f80fd5b5f7fffffffff0000000000000000000000000000000000000000000000000000000082169050919050565b61208e8161205a565b8114612098575f80fd5b50565b5f813590506120a981612085565b92915050565b5f602082840312156120c4576120c3612052565b5b5f6120d18482850161209b565b91505092915050565b5f8115159050919050565b6120ee816120da565b82525050565b5f6020820190506121075f8301846120e5565b92915050565b5f81519050919050565b5f82825260208201905092915050565b5f5b83811015612144578082015181840152602081019050612129565b5f8484015250505050565b5f601f19601f8301169050919050565b5f6121698261210d565b6121738185612117565b9350612183818560208601612127565b61218c8161214f565b840191505092915050565b5f6020820190508181035f8301526121af818461215f565b905092915050565b5f819050919050565b6121c9816121b7565b81146121d3575f80fd5b50565b5f813590506121e4816121c0565b92915050565b5f602082840312156121ff576121fe612052565b5b5f61220c848285016121d6565b91505092915050565b61221e81612010565b8114612228575f80fd5b50565b5f8135905061223981612215565b92915050565b5f806040838503121561225557612254612052565b5b5f6122628582860161222b565b9250506020612273858286016121d6565b9150509250929050565b5f805f6060848603121561229457612293612052565b5b5f6122a18682870161222b565b93505060206122b28682870161222b565b92505060406122c3868287016121d6565b9150509250925092565b6122d6816121b7565b82525050565b5f6020820190506122ef5f8301846122cd565b92915050565b5f6020828403121561230a57612309612052565b5b5f6123178482850161222b565b91505092915050565b612329816120da565b8114612333575f80fd5b50565b5f8135905061234481612320565b92915050565b5f80604083850312156123605761235f612052565b5b5f61236d8582860161222b565b925050602061237e85828601612336565b9150509250929050565b5f80fd5b5f80fd5b7f4e487b71000000000000000000000000000000000000000000000000000000005f52604160045260245ffd5b6123c68261214f565b810181811067ffffffffffffffff821117156123e5576123e4612390565b5b80604052505050565b5f6123f7612049565b905061240382826123bd565b919050565b5f67ffffffffffffffff82111561242257612421612390565b5b61242b8261214f565b9050602081019050919050565b828183375f83830152505050565b5f61245861245384612408565b6123ee565b9050828152602081018484840111156124745761247361238c565b5b61247f848285612438565b509392505050565b5f82601f83011261249b5761249a612388565b5b81356124ab848260208601612446565b91505092915050565b5f805f80608085870312156124cc576124cb612052565b5b5f6124d98782880161222b565b94505060206124ea8782880161222b565b93505060406124fb878288016121d6565b925050606085013567ffffffffffffffff81111561251c5761251b612056565b5b61252887828801612487565b91505092959194509250565b5f806040838503121561254a57612549612052565b5b5f6125578582860161222b565b92505060206125688582860161222b565b9150509250929050565b7f4e487b71000000000000000000000000000000000000000000000000000000005f52602260045260245ffd5b5f60028204905060018216806125b657607f821691505b6020821081036125c9576125c8612572565b5b50919050565b5f6060820190506125e25f830186612021565b6125ef60208301856122cd565b6125fc6040830184612021565b949350505050565b7f41756374696f6e20616c726561647920656e64656400000000000000000000005f82015250565b5f612638601583612117565b915061264382612604565b602082019050919050565b5f6020820190508181035f8301526126658161262c565b9050919050565b7f4e487b71000000000000000000000000000000000000000000000000000000005f52601160045260245ffd5b5f6126a3826121b7565b91506126ae836121b7565b92508282019050808211156126c6576126c561266c565b5b92915050565b7f41756374696f6e20686173206e6f7420656e64656400000000000000000000005f82015250565b5f612700601583612117565b915061270b826126cc565b602082019050919050565b5f6020820190508181035f83015261272d816126f4565b9050919050565b7f48696768657374206269646465722063616e6e6f7420636c61696d20626964205f8201527f616d6f756e740000000000000000000000000000000000000000000000000000602082015250565b5f61278e602683612117565b915061279982612734565b604082019050919050565b5f6020820190508181035f8301526127bb81612782565b9050919050565b7f4e6f2070656e64696e672062696420616d6f756e7400000000000000000000005f82015250565b5f6127f6601583612117565b9150612801826127c2565b602082019050919050565b5f6020820190508181035f830152612823816127ea565b9050919050565b7f42696420616d6f756e74206d7573742062652067726561746572207468616e205f8201527f3000000000000000000000000000000000000000000000000000000000000000602082015250565b5f612884602183612117565b915061288f8261282a565b604082019050919050565b5f6020820190508181035f8301526128b181612878565b9050919050565b7f4f6e6c79207468652068696768657374206269646465722063616e20636c61695f8201527f6d2074686520746f6b656e000000000000000000000000000000000000000000602082015250565b5f612912602b83612117565b915061291d826128b8565b604082019050919050565b5f6020820190508181035f83015261293f81612906565b9050919050565b5f81905092915050565b5f61295a8261210d565b6129648185612946565b9350612974818560208601612127565b80840191505092915050565b5f61298b8285612950565b91506129978284612950565b91508190509392505050565b5f81519050919050565b5f82825260208201905092915050565b5f6129c7826129a3565b6129d181856129ad565b93506129e1818560208601612127565b6129ea8161214f565b840191505092915050565b5f608082019050612a085f830187612021565b612a156020830186612021565b612a2260408301856122cd565b8181036060830152612a3481846129bd565b905095945050505050565b5f81519050612a4d81612085565b92915050565b5f60208284031215612a6857612a67612052565b5b5f612a7584828501612a3f565b91505092915050565b7f4e487b71000000000000000000000000000000000000000000000000000000005f52601260045260245ffd5b5f604082019050612abe5f830185612021565b612acb60208301846122cd565b939250505056fea2646970667358221220ada962a48538236c7855fb1d9507988dee4027f08a94a47fa5d2fb9ddccea6a364736f6c63430008140033",
  "immutableReferences": {},
  "source": "// SPDX-License-Identifier: MIT\npragma solidity 0.8.20;\n\nimport \"@openzeppelin/contracts/token/ERC721/ERC721.sol\";\nimport \"@openzeppelin/contracts/utils/Context.sol\";\nimport \"@openzeppelin/contracts/access/Ownable.sol\";\n\ncontract Auction is ERC721, Ownable {\n    struct Bid {\n        address bidder;\n        uint256 amount;\n    }\n\n    mapping(uint256 => Bid) private tokenBids;\n    mapping(address => uint256) private pendingReturns;\n\n    uint256 private auctionEndTime;\n    bool private ended;\n    uint256 private highestBid;\n    address private highestBidder;\n\n    constructor(address initialOwner) Ownable(initialOwner) ERC721(\"MyNFT\", \"NFT\") {}\n\n    function startAuction() public onlyOwner {\n        require(!ended, \"Auction already ended\");\n        auctionEndTime = block.timestamp + 1 hours;\n    }\n\n    function placeBid(uint256 tokenId) public payable {\n        require(!ended, \"Auction already ended\");\n        require(msg.value > 0, \"Bid amount must be greater than 0\");\n\n        if (block.timestamp > auctionEndTime) {\n            _endAuction();\n        }\n\n        if (msg.value > highestBid) {\n            if (highestBid != 0) {\n                // Return the funds to the previous highest bidder\n                pendingReturns[highestBidder] += highestBid;\n            }\n            highestBidder = msg.sender;\n            highestBid = msg.value;\n        } else {\n            // Return the funds to the bidder\n            pendingReturns[msg.sender] += msg.value;\n        }\n\n        tokenBids[tokenId] = Bid(msg.sender, msg.value);\n    }\n\n    function endAuction() public onlyOwner {\n        _endAuction();\n    }\n\n    function getHighestBid() public view returns (uint256) {\n        return highestBid;\n    }\n\n    function getHighestBidder() public view returns (address) {\n        return highestBidder;\n    }\n\n    function claimToken(uint256 tokenId) public {\n        require(ended, \"Auction has not ended\");\n        require(msg.sender == highestBidder, \"Only the highest bidder can claim the token\");\n\n        _safeMint(msg.sender, tokenId);\n        tokenBids[tokenId].amount = 0; // Set the bid amount to 0 to prevent reentrancy attacks\n    }\n\n    function claimBidAmount() public {\n        require(ended, \"Auction has not ended\");\n        require(msg.sender != highestBidder, \"Highest bidder cannot claim bid amount\");\n\n        uint256 amount = pendingReturns[msg.sender];\n        require(amount > 0, \"No pending bid amount\");\n\n        pendingReturns[msg.sender] = 0;\n        payable(msg.sender).transfer(amount);\n    }\n\n    function _endAuction() private {\n        require(!ended, \"Auction already ended\");\n\n        ended = true;\n    }\n}",
  "sourcePath": "/home/javad/Downloads/sample/sample/Truffle/contracts/Auction.sol",
  "compiler": {
    "name": "solc",
    "version": "0.8.20+commit.a1b79de6.Emscripten.clang"
  },
  "schemaVersion": "3.4.16",
  "updatedAt": "2023-10-19T03:28:34.985Z",
  "devdoc": {
    "errors": {
      "ERC721IncorrectOwner(address,uint256,address)": [
        {
          "details": "Indicates an error related to the ownership over a particular token. Used in transfers.",
          "params": {
            "owner": "Address of the current owner of a token.",
            "sender": "Address whose tokens are being transferred.",
            "tokenId": "Identifier number of a token."
          }
        }
      ],
      "ERC721InsufficientApproval(address,uint256)": [
        {
          "details": "Indicates a failure with the `operator`s approval. Used in transfers.",
          "params": {
            "operator": "Address that may be allowed to operate on tokens without being their owner.",
            "tokenId": "Identifier number of a token."
          }
        }
      ],
      "ERC721InvalidApprover(address)": [
        {
          "details": "Indicates a failure with the `approver` of a token to be approved. Used in approvals.",
          "params": {
            "approver": "Address initiating an approval operation."
          }
        }
      ],
      "ERC721InvalidOperator(address)": [
        {
          "details": "Indicates a failure with the `operator` to be approved. Used in approvals.",
          "params": {
            "operator": "Address that may be allowed to operate on tokens without being their owner."
          }
        }
      ],
      "ERC721InvalidOwner(address)": [
        {
          "details": "Indicates that an address can't be an owner. For example, `address(0)` is a forbidden owner in EIP-20. Used in balance queries.",
          "params": {
            "owner": "Address of the current owner of a token."
          }
        }
      ],
      "ERC721InvalidReceiver(address)": [
        {
          "details": "Indicates a failure with the token `receiver`. Used in transfers.",
          "params": {
            "receiver": "Address to which tokens are being transferred."
          }
        }
      ],
      "ERC721InvalidSender(address)": [
        {
          "details": "Indicates a failure with the token `sender`. Used in transfers.",
          "params": {
            "sender": "Address whose tokens are being transferred."
          }
        }
      ],
      "ERC721NonexistentToken(uint256)": [
        {
          "details": "Indicates a `tokenId` whose `owner` is the zero address.",
          "params": {
            "tokenId": "Identifier number of a token."
          }
        }
      ],
      "OwnableInvalidOwner(address)": [
        {
          "details": "The owner is not a valid owner account. (eg. `address(0)`)"
        }
      ],
      "OwnableUnauthorizedAccount(address)": [
        {
          "details": "The caller account is not authorized to perform an operation."
        }
      ]
    },
    "events": {
      "Approval(address,address,uint256)": {
        "details": "Emitted when `owner` enables `approved` to manage the `tokenId` token."
      },
      "ApprovalForAll(address,address,bool)": {
        "details": "Emitted when `owner` enables or disables (`approved`) `operator` to manage all of its assets."
      },
      "Transfer(address,address,uint256)": {
        "details": "Emitted when `tokenId` token is transferred from `from` to `to`."
      }
    },
    "kind": "dev",
    "methods": {
      "approve(address,uint256)": {
        "details": "See {IERC721-approve}."
      },
      "balanceOf(address)": {
        "details": "See {IERC721-balanceOf}."
      },
      "getApproved(uint256)": {
        "details": "See {IERC721-getApproved}."
      },
      "isApprovedForAll(address,address)": {
        "details": "See {IERC721-isApprovedForAll}."
      },
      "name()": {
        "details": "See {IERC721Metadata-name}."
      },
      "owner()": {
        "details": "Returns the address of the current owner."
      },
      "ownerOf(uint256)": {
        "details": "See {IERC721-ownerOf}."
      },
      "renounceOwnership()": {
        "details": "Leaves the contract without owner. It will not be possible to call `onlyOwner` functions. Can only be called by the current owner. NOTE: Renouncing ownership will leave the contract without an owner, thereby disabling any functionality that is only available to the owner."
      },
      "safeTransferFrom(address,address,uint256)": {
        "details": "See {IERC721-safeTransferFrom}."
      },
      "safeTransferFrom(address,address,uint256,bytes)": {
        "details": "See {IERC721-safeTransferFrom}."
      },
      "setApprovalForAll(address,bool)": {
        "details": "See {IERC721-setApprovalForAll}."
      },
      "supportsInterface(bytes4)": {
        "details": "See {IERC165-supportsInterface}."
      },
      "symbol()": {
        "details": "See {IERC721Metadata-symbol}."
      },
      "tokenURI(uint256)": {
        "details": "See {IERC721Metadata-tokenURI}."
      },
      "transferFrom(address,address,uint256)": {
        "details": "See {IERC721-transferFrom}."
      },
      "transferOwnership(address)": {
        "details": "Transfers ownership of the contract to a new account (`newOwner`). Can only be called by the current owner."
      }
    },
    "version": 1
  },
  "userdoc": {
    "kind": "user",
    "methods": {},
    "version": 1
  }
}